:0515F600252E32660005
:101591000408414570A4040C42631EB8041042B40F
:0815A1003D710414420A3D7182
:101200007547FF7548157549F68F4D8E4C8D4B8C83
:101210004A7B007A007934120DED7B007A00793434
:101220007D017F0112150F7547FF7548157549F649
:10123000852B4D852A4C85294B85284A7B007A00D1
:101240007934120DED7B007A0079347D097F01122B
:10125000150F7547FF7548157549F6852F4D852E75
:101260004C852D4B852C4A7B007A007934120DED8C
:101270007B007A0079347D017F0212150F7547FFDC
:101280007548157549F685334D85324C85314B854A
:10129000304A7B007A007934120DED7B007A0079B8
:0812A000347D097F0202150FE5
:03000300021428BC
:10142800C0E0C0F0C083C082C0D075D000C000C08A
:0D14380001C002C003C004C005C006C0070B
:10144500E5B0601AAF0BAE0AAD09AC08E4FBFA795A
:1014550080783F1208078F0B8E0A8D098C08E5B03E
:0214650070FC19
:10146700D007D006D005D004D003D002D001D000D9
:0B147700D0D0D082D083D0F0D0E03283
:03001300021334A1
:10133400C0E0C0F0C083C082C0D075D000C000C07F
:0D13440001C002C003C004C005C006C00700
:10135100E4FFFE0FBF00010EEF64644E70F5E5B0CF
:10136100602EE4FFFEFDFCAB0BAA0AA909A8081236
:1013710008F8601C401AAF0BAE0AAD09AC08E4FBDB
:10138100FA7980783F1208038F0B8E0A8D098C0839
:04139100E5B070FC57
:10139500D007D006D005D004D003D002D001D000AC
:0B13A500D0D0D082D083D0F0D0E03256
:1013B000121555C288D2A8D2AFC282D283850F2B14
:1013C000850E2A850D29850C2885132F85122E85DB
:1013D000112D85102C85173385163285153185140E
:1013E00030AF0BAE0AAD09AC0812120030871AAF4D
:1013F0000BAE0AAD09AC08E4FBFA7980783F12081D
:10140000078F0B8E0A8D098C082087B1AF0BAE0AAF
:10141000AD09AC08E4FBFA7980783F1208038F0B22
:081420008E0A8D098C088095ED
:0415DF00D2A0D2A123
:0415E3007F0ADFFE9E
:0115E70022E1
:0B15D4001215DFC2A01215E3C2A12215
:0C15C800C2A0D2A11215E3D2A00215E3CC
:0214E900AE074C
:1014EB00E4FDEE30E703D38001C392A0EE25E0FECE
:1014FB00D2A11215E3C2A11215E30DBD08E412151A
:03150B00DFC2A19B
:01150E0022BA
:10153500E4FED2A0FDD2A11215E3EE25E0FFA2A0A4
:0F154500E4334FFEC2A11215E30DBD08E8AF0657
:011554002274
:0F15AA00EF24FF92A0D2A11215E3C2A10215E314
:0E15B9001215DFA2A0E433FEC2A11215E3FF5B
:0115C7002201
:101555007F331215E87F321215E87F281215E87FD0
:0E1565000C1215E87F061215E87F010215E84A
:101573008F488D49E548B40105E549148009E548DC
:0E158300B4020AE549243F4480FF1215E82215
:0715E800AD07E4FF021482CD
:0715EF00AD077F0102148229
:06150F008B448A45894669
:10151500121573E4F547AB44AA45A946854782757C
:0F1525008300120D1CFF60071215EF054780E7CA
:011534002294
:021482008F4A8F
:10148400ED54F0F54BEDC454F0F54C1215D47F4EE9
:101494001214E9E54B454A440CFF1214E9E54B45A7
:1014A4004A4408FF1214E9E54C454A440CFF12145F
:0E14B400E9E54C454A4408FF1214E90215C848
:100800000209A6E86480F8E933E83360110460F077
:10081000ED33EC337009E8FCE9FDEAFEEBFF22045E
:1008200060DED3EB9FEA9EE99DE8C2E78CF0C2F759
:1008300095F0400CE8CCF8E9CDF9EACEFAEBCFFB25
:1008400012097185D0F05804700320D5B3E8047004
:10085000075002B2D50209B092D5EC0460F7E4CC9F
:10086000C0E0C398F8603B94186008400DD0E0FBEE
:10087000020988E4FBFAC9FC8028E830E406E4C9F0
:10088000FBE4CAFCE830E305E4C9CACBFCE8540742
:100890006010F8C3E913F9EA13FAEB13FBEC13FC4D
:1008A000D8F130F52FC3E49CFCEF9BFFEE9AFEEDF0
:1008B00099FDD0E0FBEF4E4D4C701222DB03020994
:1008C000ADEC2CFCEF33FFEE33FEED33FDED30E706
:1008D000EB020988EF2BFFEE3AFEED39FDD0E0FB8D
:1008E00050130BBB00030209B0ED13FDEE13FEEF36
:0808F00013FFEC13FC02098860
:1008F80074F8CC6480CCC86480C8F58204604FC3A7
:10090800EB9FF5F0EA9E42F0E99D42F0E89C45F045
:10091800603C501DE5825FFFE582D313CB5BCBF4CF
:100928002B5582FB50280ABA002409B900200880F8
:100938001DE5825BFBE582D313CF5FCFF4C3132F92
:100948005582FF50090EBE00050DBD00010CC3EB1A
:100958009FF5F0EA9E42F0E99D42F0E89C45F06080
:0909680007CC4820E701B3EC22A2
:100D9100E55B2447F8E6055B227844300702784793
:100DA100E475F001120D5B020D032000EB7F2ED2E2
:100DB100008018EF540F2490D43440D4FF30040B3A
:100DC100EF24BFB41A0050032461FFE55C600215F3
:100DD1005C055FE55F7002055E30070D7844E475E0
:100DE100F001120D5BEF020D490214C27403D20728
:100DF1008003E4C207F55B8B448A458946E4F55CD0
:100E0100F55EF55FE55C60077F20120DCC80F5751E
:100E11005DFFC201C200C202C203C205C206C2080E
:100E2100120D9AFF700D3007057F00120DDDAF5FC7
:100E3100AE5E22B4255FC2D5C204120D9AFF24D042
:100E4100B40A00501A75F00A785C30D50508B6FF6F
:100E51000106C6A426F620D5047002D20380D92447
:100E6100CFB41A00EF5004C2E5D2040210CAD20175
:100E710080C6D20080C0D20280BCD2D580BAD20551
:100E810080B47F20120DCC2002077401B55C0040B4
:100E9100F1120D91FF120DCC020E05D208D206807F
:100EA10095120D91FB120D91FA120D91F94A4B70A9
:100EB1000679C17A117BFF20022EE55C602A7E0053
:100EC1008E82758300120D1C60060EEE655D70F05A
:100ED100C2D5EBC0E0EAC0E0E9C0E0EE12112AD0D1
:100EE100E0F9D0E0FAD0E0FB120D03FF60AAEBC0FD
:100EF100E0EAC0E0E9C0E0120DCCD0E02401F9D075
:100F0100E03400FAD0E0FBE55D0460DCD55DD9801A
:100F110087D20280A212110D60F7E55D7001041203
:100F210009BBA95D600DE55D600914F55D1211B4A1
:100F3100EF60F3EA30E702F404C3995077EAF4254D
:100F41005D0430E701E404F55D800D12110D60C10F
:100F5100EA055D255D1209BBEA785AF630E701E43E
:100F6100255D04D55D042005011412112AE4C0E0B9
:100F71001211B4785AE6601320E70714F6120DB483
:100F8100802204F6D0E014C0E07F00120DB4E55DCC
:100F91006007120DAB155D800B300503120DABD050
:100FA100E0020E05D0E00480C512110D60A0E55DE0
:100FB100041209BB785AEAF6E55D200502600104D6
:050FC100240412112AB6
:100FC60074FF04C0E01211B4120DB4E55D200502F1
:100FD6006003120DABD0E0B55DE87F45120DBE781B
:100FE6005AE67F2B30E7047F2DF404C0E0120DCCC7
:100FF600D0E075F00A84C0F0120DB5D0E0120DB540
:10100600020E05791080027908C206C2088008D24D
:10101600D5790A8004790AC2D5E55D047002F55DCA
:10102600E4FAFDFEFF120D91FC7B08200113120D60
:1010360091FD7B1030000A120D91FE120D91FF7B7F
:1010460020EC3382D592D55013C3E43000069FFFBF
:10105600E49EFEE42001039DFDE49CFCE4CBF8C283
:1010660001EC700CCFCECDCCE824F8F870F38017E5
:10107600C3EF33FFEE33FEED33FDEC33FCEB33FB16
:10108600994002FB0FD8E9EB300105F8D0E0C448DF
:10109600B201C0E00AEC4D4E4F78207B0070C2EAE8
:1010A600B55D0040BCC0E012112CD0F0D0E02001AC
:1010B60004C4C0E0C4B201C0F0120DB5D0F0D5F042
:1010C600EB020E05120D6B0EA2531009580E734C4F
:1010D6000E6F42100D4F1015441015490E8843101F
:1010E6001B550F4C460FAA450F164711E1500E77B8
:1010F6002D0E7B2E0E9E2B0E7F230E9C2011CA2AB0
:101106000E374800000E96E55DB4FF03755D0612C6
:101116000D91FC120D91FD120D91FE120D91FF78AD
:10112600530209EA790AA2D5200314300509B91039
:10113600020404B9080104A2D520060250010420C5
:1011460002689202B55C005034C0E07F203003197B
:101156007F30A20272067205500F121183C202C2BC
:1011660006C205C2087F30800F300503E9C0E012D1
:101176000DCC300503D0E0F9D0E0B55CCC300517D6
:101186007F30B9100C120DCC7F583004077F788061
:1011960003B90803120DCC3002057F2D020DCC7F5A
:1011A600202008F87F2B2006F322920280CF7F00B2
:1011B600B4070050052453F8E6FF22286E756C6CC0
:1011C6002900D201120D913001F8C201785C30D5A8
:1011D6000108F6020E372D50434958120D9124038B
:1011E600B405004001E49011DC93120DBD743A126F
:0A11F6000DBDD203755C0402100960
:10097100E9D2E7C933E833F892D5EDD2E7CD33ECCC
:0709810033FC5002B2D52245
:10098800EC30E7100FBF000C0EBE00080DBD0004D0
:100998000BEB6014A2D5EB13FCED92E7FD2274FF7C
:1009A800FCFDFEFF22E480F8A2D574FF13FC7D80D5
:0309B800E480EFE9
:1009BB00F920E72824F950037907E4F42402FB1803
:1009CB00DBFDE624FB5014E9600DE4F618E604F6B3
:0F09DB00B40A08E4F6D9F57401F60A22C2D5224F
:1009EA00ED33EC3392D5FA602AB4FF33EDC2E77BDC
:1009FA00FF60067A0A790FE4227A0A791820D50468
:100A0A007A0A7913224E614E002B494E46002D492F
:100A1A004E4600E47A08F608DAFC7B00740722E8FE
:100A2A00C0E0ECC0E0EDC0E0EEC0E0EFC0E0EA7587
:100A3A00F010A4CAABF075F04DA42BFBE435F0FC22
:100A4A00EA2410FAEB34C5FBEC34D9FCEDC2E7FF1B
:100A5A0075F056A4F42411C5F0F434C58FF0A42A15
:100A6A00E5F03BE43CF620E714120CC3D0E0FFD0DB
:100A7A00E0FED0E0FDD0E0FC120BF68014F4041284
:100A8A000CC3D0E0FFD0E0FED0E0FDD0E0FC120ABB
:100A9A00EDD0E0F8E6FAEDD2E7CD33EC332482FB71
:100AAA00E4C3CF33CFCE33CECD33CD33DBF37B07A5
:100ABA0075F00A846004F6081B0AE5F0F6088FF060
:100ACA00740AA4FFACF08EF0740AA42CFEACF050A9
:100ADA00010C8DF0740AA42CFDE435F0F608DBDE77
:030AEA007407226C
:100AED00EC4D6011E8497017ED33EC3304600DE403
:100AFD00FCFFFEFD22E933E8330470F80209A6126B
:100B0D00097158046009E4CC24815006285009026B
:100B1D0009B02840030209ADC0E0EB4A7044B9802A
:100B2D0006D0E0FB02099CEF4E701CBD8008EBFF68
:100B3D00EAFEE9FD80EBE98DF0A4FEE5F0020BD6AF
:100B4D00E9CDF9EAFEEBFFEF89F0A4FCE5F0CE89E3
:100B5D00F0A42EFFE435F0CD89F0A42DFEE435F0A0
:100B6D008067EF4E7005BD80D780C3EF8BF0A4ACCE
:100B7D00F0EE8BF0A42CFCE435F0F8EF8AF0A42C09
:100B8D00E5F038FCE433CB8DF0A42CFCE5F03BF81C
:100B9D00EE8AF0A42CFCE5F038F8E433CF89F0A40C
:100BAD002CFCE5F038CF3400CE89F0A42FFFE5F012
:100BBD003EFEE433C98DF0A42EFEE5F039CD8AF06A
:100BCD00A42FFFE5F03EFEE43DFD33D0E0FB5007E2
:100BDD000BBB000F0209B0EC2CFCEF33FFEE33FE24
:060BED00ED33FD02098852
:100BF3000209B0EC5D046005E8590470030209A61C
:100C0300120971580460F6EC4860F2EC7004FDFEC2
:100C1300FF22C860DB2481C85009C39860025006D4
:100C23000209AD9850CAF582E9294B4A7005AB8297
:100C330002099C75F0007C1A7880C3EF9BEE9AED55
:100C430099400DC3EF9BFFEE9AFEED99FDE842F04C
:100C5300DC23ACF0D0E0FFD0E0FED0E0FDAB82209F
:100C6300E7101BEB60BAEC2CFCEF33FFEE33FEED29
:100C730033FD020988E803F830E705C0F075F0009A
:100C8300EF2FFFEE33FEED33FD40B830E7C280AA0D
:100C93003F8000004120000042C80000447A000069
:100CA300461C400047C35000497424004B189680EB
:100CB3004CBEBC205A0E1BCA6753C21C749DC5AEE2
:100CC300FB60065407601C2323120CF1EB543860BD
:100CD30009120CDD120CEC120AEDECF8EDF9EEFA48
:100CE300EFCB22EB120CEC80F1543803241C900C54
:100CF30093FE93FC0EEE93FD0EEE930ECE93FF2226
:030000000212A841
:0C12A800787FE4F6D8FD75815F0212EF3C
:100D0300BB010689828A83E0225002E722BBFE02EE
:090D1300E32289828A83E4932221
:100D1C00BB010CE58229F582E5833AF583E022508C
:100D2C0006E92582F8E622BBFE06E92582F8E222D6
:0D0D3C00E58229F582E5833AF583E49322F0
:100D4900BB010689828A83F0225002F722BBFE0189
:020D5900F32283
:100D5B00FAE6FB0808E6F925F0F618E6CA3AF62299
:100D6B00D083D082F8E4937012740193700DA3A317
:100D7B0093F8740193F5828883E47374029368602B
:060D8B00EFA3A3A380DF2B
:1014C200EFB40A07740D1214CD740A309811A8995A
:1014D200B8130CC2983098FDA899C298B811F6308A
:0714E20099FDC299F5992262
:1012B4000213B0E493A3F8E493A34003F68001F28D
:1012C40008DFF48029E493A3F85407240CC8C3333B
:1012D400C4540F4420C8834004F456800146F6DF0A
:1012E400E4800B0102040810204080901591E47EF4
:1012F400019360BCA3FF543F30E509541FFEE493FF
:10130400A360010ECF54C025E060A840B8E493A3C5
:10131400FAE493A3F8E493A3C8C582C8CAC583CAF0
:10132400F0A3C8C582C8CAC583CADFE9DEE780BEA8
:0115A9000041
:00000001FF
